:100000000C949A000C94C2000C94C2000C94C20090
:100010000C94C2000C94C2000C94C2000C94C20058
:100020000C94C2000C94C2000C94C2000C942C16C8
:100030000C94C2000C94C2000C94C2000C94C20038
:100040000C946B140C94C2000C94DB140C94B51437
:100050000C94C2000C94C2000C94C2000C94C20018
:100060000C940D150C94C2000414004008140440B4
:100070000C14084000000000041400400814044060
:100080000C14084000000000041400400814044050
:100090000C14084010120C2000000000051801107C
:1000A00001000C00091801100E000C0000000000F7
:1000B000041200200813024000000000053801204F
:1000C000020006000938012002001A000D38012044
:1000D00002000E00000000000000000023002600C7
:1000E00029000000000800020100000304070000CE
:1000F00000000000000000000000250028002B0088
:1001000000000000240027002A0004040404040462
:1001100004040202020202020303030303030102B6
:100120000408102040800102040810200102040885
:100130001020381611241FBECFEFD8E0DEBFCDBF90
:1001400026E0A2E5B4E001C01D92A336B207E1F7B4
:1001500014E0A0E0B1E0EEE8FBE302C005900D92F0
:10016000A235B107D9F710E0CAE9D0E004C0219761
:10017000FE010E94511AC939D107C9F70E94BA1667
:100180000C94C51D0C94000090E0FC01E25EFE4F53
:100190002491865F9E4FFC018491882399F090E022
:1001A000880F991FFC01E050FF4FA591B491FC010D
:1001B000EA50FF4F859194918FB7F894EC91E22B20
:1001C000EC938FBF0895833081F028F4813099F04B
:1001D0008230A9F008958730A9F08830C9F08430C2
:1001E000B1F4809180008F7D03C0809180008F7773
:1001F00080938000089584B58F7784BD089584B579
:100200008F7DFBCF8091B0008F778093B0000895F1
:100210008091B0008F7DF9CF1F93CF93DF93282F6C
:1002200030E0F901EE51FF4F8491F901E25EFE4F9B
:10023000D491F901E65FFE4FC491CC23A9F0162FAB
:1002400081110E94E300EC2FF0E0EE0FFF1FEA5057
:10025000FF4FA591B4918FB7F894EC91111108C09C
:10026000D095DE23DC938FBFDF91CF911F9108954E
:10027000DE2BF8CF3FB7F8948091F5049091F60407
:10028000A091F704B091F80426B5A89B05C02F3FB4
:1002900019F00196A11DB11D3FBFBA2FA92F982FAC
:1002A0008827BC01CD01620F711D811D911D42E0A7
:1002B000660F771F881F991F4A95D1F708950895F3
:1002C0000895AF92BF92CF92DF92EF92FF920F9379
:1002D0001F93CF93DF936C017B018B01040F151FDC
:1002E000EB015E01AE18BF08C017D10759F0699144
:1002F000D601ED91FC910190F081E02DC6010995A8
:10030000892B79F7C501DF91CF911F910F91FF9054
:10031000EF90DF90CF90BF90AF900895FC01538D88
:10032000448D252F30E0842F90E0821B930B5417CF
:1003300010F0CF96089501970895FC01918D828D5C
:10034000981761F0A28DAE0FBF2FB11D5D968C91F5
:10035000928D9F5F9F73928F90E008958FEF9FEF34
:100360000895FC01918D828D981731F0828DE80FF0
:10037000F11D858D90E008958FEF9FEF0895FC01AA
:10038000918D228D892F90E0805C9F4F821B910977
:100390008F739927089586E295E00E94BF0121E0BE
:1003A000892B09F420E0822F0895FC01A48DA80F69
:1003B000B92FB11DA35ABF4F2C91848D90E00196A7
:1003C0008F739927848FA689B7892C93A089B189C7
:1003D0008C91837080648C93938D848D981306C068
:1003E0000288F389E02D80818F7D80830895EF92CC
:1003F000FF920F931F93CF93DF93EC0181E0888FDF
:100400009B8D8C8D98131AC0E889F989808185FFAE
:1004100015C09FB7F894EE89FF896083E889F98950
:1004200080818370806480839FBF81E090E0DF9152
:10043000CF911F910F91FF90EF900895F62E0B8DA5
:1004400010E00F5F1F4F0F731127E02E8C8D8E1160
:100450000CC00FB607FCFACFE889F989808185FFC7
:10046000F5CFCE010E94D501F1CFEB8DEC0FFD2F22
:10047000F11DE35AFF4FF0829FB7F8940B8FEA8982
:10048000FB8980818062CFCFCF93DF93EC01888D91
:100490008823B9F0AA89BB89E889F9898C9185FDFF
:1004A00003C0808186FD0DC00FB607FCF7CF8C918D
:1004B00085FFF2CF808185FFEDCFCE010E94D5016F
:1004C000E9CFDF91CF91089520919804260F33272B
:1004D000331F21323105ECF42091BC04FC0190E083
:1004E00080E0243069F082E00895A0919804219181
:1004F000AC0148585B4FA40FB52FB11D2C9301964A
:10050000861798F380919804680F6093980480E0B0
:10051000089581E008951092BC0481E08093BE04A8
:100520001092BD0461E082E10E940C0161E083E170
:100530000E940C01E9EBF0E080818E7F8083808156
:100540008D7F808388E48093B80085E48093BC002D
:1005500008950895E091E9048091E804E81730F4E3
:10056000F0E0EE5AFB4F808190E008958FEF9FEF0F
:1005700008959091E9048091E8042FEF3FEF9817D8
:1005800048F4E92FF0E0EE5AFB4F208130E09F5F06
:100590009093E904C90108958091E8049091E904D9
:1005A000891B990B0895CF93DF93CB01EA01642F48
:1005B0000E946402CE01DF91CF910895CF93DF9323
:1005C0001F92CDB7DEB7698361E0CE0101960E942C
:1005D000640281E090E00F90DF91CF91089590E068
:1005E00080E00895CF93DF93EC018C819D81892B6E
:1005F00061F48E819F81009711F482EB91E09F83DB
:100600008E8380E0DF91CF910895E881F98141E008
:1006100050E0CE01099581110AC02E813F8121153C
:10062000310511F420EC31E03F832E83EBCF2C8198
:100630003D81215031093D832C83E4CF4F925F925D
:100640006F927F928F929F92AF92BF92CF92DF92E2
:10065000EF92FF920F931F93CF93DF931F92CDB72B
:10066000DEB74C017B01412C512C612C712CA12C4B
:10067000B12CC12CD12C10E0BE016F5F7F4FC401A3
:100680000E94F202E82F882391F0F9811F3310F1C4
:100690008F2F8E7FF9F0D40116968D919C91009743
:1006A00011F489EC91E0F40197838683E0E08E2FCA
:1006B0000F90DF91CF911F910F91FF90EF90DF90FE
:1006C000CF90BF90AF909F908F907F906F905F90F2
:1006D0004F9008952F2F2F7730E040E050E060E0FA
:1006E00070E080E090E0012F0E94B61A422A532A5F
:1006F000642A752AA62AB72AC82AD92A195FF7FDBB
:10070000BBCFD7014C9211965C92119712966C92C6
:10071000129713967C9213971496AC921497159691
:10072000BC9215971696CC9216971796DC92BFCF6F
:100730008F929F92AF92BF92CF92DF92EF92FF92F1
:100740000F931F93CF93DF931F92CDB7DEB78C012A
:100750005B017A01BE016F5F7F4F0E94F202882E1B
:1007600081111CC0F80184819581892B11F0812CA5
:1007700006C0E114F104D9F381E0F7018083882DEC
:100780000F90DF91CF911F910F91FF90EF90DF902D
:10079000CF90BF90AF909F908F900895898187FDF3
:1007A0000AC0C82ED12CF12CE12CF501C082D182D7
:1007B000E282F382E4CF8F77C82ED12CF12CE12C8A
:1007C00097E0992EBE016F5F7F4FC8010E94F20231
:1007D000882369F29981FFE1F91510F52EE32915B7
:1007E00058F02FEF892F8F7749F0F7FE03C081E093
:1007F000291729F080E003C021E0F4CF81E0817067
:10080000EFE3E91510F0811125C0F8018681978189
:10081000009711F489EC91E0F80197838683A7CFC4
:10082000FCE19F121CC0892F807721F0892F8877E7
:10083000883759F7492F4F7050E070E060E08CE145
:10084000440F551F661F771F8A95D1F7C42AD52AF2
:10085000E62AF72AF7E09F0E97FDB4CFA6CF492FDF
:100860004F7750E070E060E0092C04C0440F551F42
:10087000661F771F0A94D2F7E9CF8F929F92AF92AB
:10088000BF92EF92FF920F931F93CF93DF9300D00D
:1008900000D0CDB7DEB78C017B0150E040E0BE0157
:1008A0006F5F7F4F0E949803882301F198E0F80161
:1008B000D70101900D929A95E1F749815A816B8198
:1008C0007C81F70184809580B12CA12C841695063B
:1008D000A606B706D0F4F80186819781009711F437
:1008E00089ED91E0F8019783868380E00F900F9067
:1008F0000F900F90DF91CF911F910F91FF90EF908C
:10090000BF90AF909F908F90089555834483F801D6
:1009100024813581241B350B35832483E7CF8F92C7
:100920009F92AF92BF92EF92FF920F931F93CF933C
:10093000DF9300D000D0CDB7DEB78B017A01F9018B
:100940001082FB0111821082FA0110821182128240
:100950001382A901BE016F5F7F4F0E949803882315
:10096000B9F049815A816B817C814A015B0193E036
:10097000B694A794979487949A95D1F7F7018082BB
:100980009182A282B38247705527F8015183408338
:100990000F900F900F900F90DF91CF911F910F91BB
:1009A000FF90EF90BF90AF909F908F900895EF923F
:1009B000FF920F931F93CF93DF93CDB7DEB760976E
:1009C0000FB6F894DEBF0FBECDBF8C017A0181E077
:1009D000452BA1F06115710561F5D8018D919C91B0
:1009E0008A56984031F1F1E1EF16F104A0F4A70125
:1009F000BE016F5F7F4FC8010E94D70460960FB69B
:100A0000F894DEBF0FBECDBFDF91CF911F910F9144
:100A1000FF90EF90089540E150E0BE016F5F7F4F7F
:100A2000C8010E94D704882349F3E0E1EE1AF108D7
:100A3000DACFD80114968D919C9115978E159F054C
:100A400060F416968D919C91009711F482EB91E0E1
:100A5000F8019783868380E0D1CFED91FC91A701C7
:100A6000C8010995F80181110DC026813781211532
:100A7000310511F420EC31E0D80117963C932E9308
:100A80001697BCCF248135812E153F0518F41582A9
:100A90001482B4CF2E193F0935832483AFCF0F932F
:100AA0001F93CF93DF938C01EB014C815D81411546
:100AB000510579F48A819B81F801938382838E8129
:100AC0009F819783868381E0DF91CF911F910F9162
:100AD000089570E060E0CE010E94D7048111EACF52
:100AE000F3CF0F931F93CF93DF9300D000D0CDB7F8
:100AF000DEB78C016130710531F178F0623071053B
:100B000051F16530710509F448C0FC018681978177
:100B10000097F1F580E092E03BC041E050E0BE017B
:100B20006F5F7F4FC8010E94D704882319F0998115
:100B300097FDF3CF0F900F900F900F90DF91CF9113
:100B40001F910F91089548E050E070E060E0C80107
:100B50000E94D704EFCF50E040E0BE016F5F7F4FAF
:100B60000E949803882331F349815A816B817C81EB
:100B7000DB01CA01AA27BB27481759076A077B0769
:100B800021F3F80186819781009711F481EF91E0BC
:100B9000F8019783868380E0CDCF44E050E0D5CF45
:100BA000CF92DF92EF92FF92CF93DF93DC01149606
:100BB0008D919C911597019615969C938E93149701
:100BC000CD91DC9111972885398582179307B8F06C
:100BD00015961C921E92149717961C921E921697A9
:100BE0001B961C921E921A9719961C921E92189789
:100BF000DF91CF91FF90EF90DF90CF900895169600
:100C00002D913C911797C901880F991F880F991F43
:100C1000E881F981E80FF91FC590D590E590F4902F
:100C200077276F2D5E2D4D2D83E0C822DD2481E0D6
:100C300090E002C0880F991FCA94E2F7820F931FB9
:100C400017969C938E931697842F807321E030E043
:100C500011F030E020E018968D919C911997820F49
:100C6000931F19969C938E9318974F704850550B6D
:100C700021E030E04230510510F030E020E01A96DB
:100C80008D919C911B97820F931F1B969C938E9323
:100C90001A97AECF4F925F926F927F928F929F92F0
:100CA000AF92BF92CF92DF92EF92FF920F931F937A
:100CB000CF93DF9300D000D000D0CDB7DEB7DC01FA
:100CC0004D915C9111975E834D8314962D913C91CB
:100CD0001597FA01808591852817390708F075C1A5
:100CE0002081318116968D919C911797880F991FBD
:100CF000880F991FF901E80FF91FC590D590E5906D
:100D0000F49077276F2D5E2D4D2D49835A836B8389
:100D10007C8352964C935297B701A6014370552796
:100D20006627772726013701F2E076946794579477
:100D30004794FA95D1F7413051056105710509F4E1
:100D40005FC008F440C0FC0134968C01085F1F4F5F
:100D5000423051056105710509F4CDC0E20FF31F62
:100D60004591559165917491F901E00FF11F8590BE
:100D70009590A590B490FC013C96E20FF31FC590AE
:100D8000D590E590F490FC017096E20FF31F059169
:100D900015912591349151961C930E935097F20121
:100DA000EF73FF27052F162F272F3327C80156E093
:100DB000880F991F5A95E1F78E2B9F2B1D969C93B8
:100DC0008E931C9718C081E090E051969C938E936F
:100DD00050975FE3452255241D965C924E921C97D6
:100DE0004F2D4F708E2C912C6CE1F694E794D79494
:100DF000C7946A95D1F71F96DC92CE921E9738C0A1
:100E0000FC013496E20FF31F059115912591349161
:100E1000C7019F7051969C938E9350976FE3462223
:100E20005524480159018CE1B694A794979487946E
:100E30008A95D1F7C40146E0880F991F4A95E1F7DA
:100E4000842995291D969C938E931C975CE1F694BA
:100E5000E794D794C7945A95D1F74C2D480159017E
:100E6000AA24BB24C9019F701F969C938E931E9742
:100E700012968D919C911397009709F06DC054962E
:100E80001C921E92539758961C921E9257975296F8
:100E90008C9152978F708850990B029708F090C0F0
:100EA0001A968D919C911B97880F991FED81FE8159
:100EB00022813381F901E80FF91F808191815A96CF
:100EC0009C938E93599781E026960FB6F894DEBFD7
:100ED0000FBECDBFDF91CF911F910F91FF90EF908B
:100EE000DF90CF90BF90AF909F908F907F906F904A
:100EF0005F904F900895E20FF31F459155916591D2
:100F00007491F901E00FF11F85909590A590B49030
:100F1000FC013C96E20FF31F059115912591349148
:100F20005196FC92EE9250978FE348225524C52E9D
:100F3000D62EE72EFF24C601F6E0880F991FFA95FA
:100F4000E1F7842995291D969C938E931C971F96F3
:100F50001C930E931E978CCF880E991E54969C92CC
:100F60008E9253974423C1F0C401841B910947FD1D
:100F7000939558969C938E9357978981807C80385F
:100F8000D1F481149104B9F0F401808191815696D5
:100F90009C938E9355977BCF89818073803231F4F7
:100FA000998196FD03C0CD014096E3CF58961C92DF
:100FB0001E925797E2CF56969C928E92559767CF86
:100FC0005A961C921E9259977ECF80E07DCF0F9348
:100FD0001F93CF93DF93EC018CB58C608CBD60E0E8
:100FE00089810E940C010CB405FC4CC01EBC0000A1
:100FF0000DB407FEFDCF8EB51EBC00000DB407FE7C
:10100000FDCF9EB5292F382F890185E016950795CC
:101010008A95E1F712502F71C80133E095958795B5
:101020003A95E1F78F779927A801559547955595FA
:1010300047958427982F969596958927382F32952E
:101040003F703827402F4370922F9695892F822723
:10105000982F969596959827892F82958F70892736
:10106000942F969594278927832781708D832C83CD
:1010700061E089810E940C01C801DF91CF911F912D
:101080000F9108951EBC00000DB407FEFDCF9EB564
:101090001EBC00000DB407FEFDCF8EB5B3CFFC0122
:1010A00001900020E9F73197AF01481B590BBC01B3
:1010B00086E295E00C946101CF93DF930E944F0884
:1010C000EC0182E192E00E944F088C0F9D1FDF919E
:1010D000CF910895DC0112962D913C911397F9015F
:1010E000E40FF51F1396FC93EE93129761157105AB
:1010F00021F0CB01B9010E940D1B81E00895CF932F
:10110000DF9385ED8093BC00809174049091750409
:10111000A0917604B09177040796A11DB11D23E03C
:10112000B695A795979587952A95D1F72091BC00FC
:1011300024FD03C01092BC0436C040917404509149
:1011400075046091760470917704452B462B472BEC
:1011500069F30097A105B10541F02AE22A95F1F75C
:1011600000C00197A109B109E1CF8091730491E01A
:10117000909372048823B9F0C091B800D091BA005E
:101180008091BC008A7B8093BC0060E082E10E9479
:101190000C0160E083E10E940C010E948B02D0935D
:1011A000BA00C093B800DF91CF910895FC01349646
:1011B00027E1DF011D922A95E9F7FC017183608325
:1011C000538342830C944A060F931F93CF93DF936C
:1011D0008C01EB01E881F98164817581DB01ED917E
:1011E000FC9185919591A591B491892F9A2FAB2F60
:1011F000BB27807C9927AA27BB27AE014E5F5F4F94
:1012000080389105A105B10511F04A815B81C801C3
:101210000E94D6082696F801D08FC78BDF91CF9118
:101220001F910F910895CF92DF92EF92FF920F934B
:101230001F93CF93DF93CDB7DEB7AA970FB6F8947D
:10124000DEBF0FBECDBF8C016E018CE1C80ED11C7C
:1012500088E0D6011D928A95E9F71CA21DA21EA264
:101260001FA219A618A6D801ED91FC918481958141
:101270000097C9F02AE638E03D8F2C8F9F8F8E8F24
:101280008FEF9FEF99A388A39E01265D3F4FAE018C
:101290004C5D5F4FBE01685D7F4FC6010E948F04A9
:1012A000882309F4C7C0F8018289282F2F702A30BB
:1012B00009F05DC00588F689E02DE080F180E11439
:1012C000F10409F040C04CA15DA16EA17FA14115C0
:1012D00051056105710549F1F80184859585B0E0F6
:1012E000A0E0481759076A077B07F9F468A579A5B4
:1012F000A801C6010E941C0A882309F49BC09E0114
:10130000265D3F4FAE014C5D5F4FBE01685D7F4F74
:10131000C6010E948F04882309F48CC0D801579617
:10132000ED91FC91309709F01082C8010E94D00520
:10133000C8010E944A06F80184819581892B09F031
:10134000B2CF81E04AC0B701CE0101960E94E40805
:10135000882349F0D70116961C92CE0101960E946F
:1013600013098823D1F1F701E480F580A8CF982FE5
:10137000907C09F053C0982F90739031E9F507885D
:10138000F08DE02D309709F010822850330BF801D2
:101390008589968922303105C0F5018CF28DE02DCA
:1013A00024813581232B51F426813781232B31F47D
:1013B000A281B3812D913C91232B39F1AC01BF0166
:1013C000CE0101960E94D608882309F47CCFCE0175
:1013D00001960E941309811176CFAA960FB6F89450
:1013E000DEBF0FBECDBFDF91CF911F910F91FF9058
:1013F000EF90DF90CF900895D80185FFC6CF579624
:10140000ED91FC91118210825ECFD8011E964D9114
:101410005C9170E060E00E94161B55CF903809F097
:1014200052CFD8010388F489E02D1182108285FF04
:101430004ACFE5CF80E0D1CF8F929F92AF92BF92FB
:10144000CF92DF92EF92FF920F931F93CF93DF9390
:10145000CDB7DEB7A3970FB6F894DEBF0FBECDBFF2
:101460008C015B017A01DA0152968C915297982F88
:10147000907C903409F425C1903809F418C1911179
:10148000CFC1982F9073903109F467C078F49923F5
:1014900009F46AC0D80116968D919C91009711F4B9
:1014A0008BE392E0F801978386838CC0903209F435
:1014B00062C0903379F78F708850990B029708F0CB
:1014C000EDC05796ED91FC915897208131811C9683
:1014D0008D919C911D972817390709F4DFC01E963E
:1014E0004D915C911F9770E060E055968D919C91B5
:1014F0000E94161BD7015996ED91FC91848195812C
:10150000892B59F486819781892B39F4A281B38183
:101510008D919C91892B09F4C1C0D70155964D91AD
:101520005C91BF01CE0101960E94D608882309F480
:10153000B5C0CE0101960E941309D82E8111AEC00C
:10154000F80186819781009711F484E292E0D80136
:1015500017969C938E9316977FC05796ED91FC91AA
:10156000309711F081E08083A701B501C8010E9486
:101570000711D82E71C0FA018788908CD4014D9143
:101580005C9126853785429FB001439F700D529F25
:10159000700D112423893489260F371FB2E0AB1652
:1015A000B10409F06DC08F70863008F069C0368BC9
:1015B000258BBE016F5F7F4FC8010E943D04D82E6E
:1015C000811120C0D12C48C0A7016FEF70E0CE017F
:1015D00001960E9407118823A1F1F4018081918175
:1015E000019691838083D70155968D919C91569752
:1015F0001E962D913C911F97820F931F56969C9398
:101600008E9355978D819E81892B51F0F401208115
:101610003181D70150968D919C9128173907A0F2FE
:101620008D819E81892B79F0F801868197810097C1
:1016300011F485E192E0D80117969C938E9316974A
:10164000C1CFD12CEDCFBE016F5F7F4FC8010E948B
:101650004F05882309F4B6CF8D2DA3960FB6F894C5
:10166000DEBF0FBECDBFDF91CF911F910F91FF90D5
:10167000EF90DF90CF90BF90AF909F908F900895A4
:10168000F701368B258BCA010196D4018D939C936B
:10169000808991894817590738F666CFF701848504
:1016A00095850788F08DE02D918380835DCFD801EB
:1016B00016968D919C91009709F0F4CE8EE492E0FD
:1016C000F1CEED91FC9186819781892B21F4C8019F
:1016D0000E9471054ECF62307105B9F5BE016F5F92
:1016E0007F4FC8010E943D04D82E882309F4B4CF4F
:1016F000AD80BE80D701ED91FC910680F781E02D91
:10170000A70170E060E0CE0101960995D82E811105
:101710000EC0F80186819781009709F018CF8F815C
:101720009885009709F013CF80E692E010CF8D8165
:101730009E81009719F08A159B05D0F2BE016F5F5C
:101740007F4FC8010E944F0514CF6130710509F425
:101750004DC070F06530710509F456C0D801169679
:101760008D919C91009709F09DCE80E092E09ACEF9
:10177000CE0101964C01B12CA12C64019FEFA91A56
:10178000B90AABE0AA16B10449F4F8018681978141
:10179000009709F050CF89EC91E04DCF41E050E047
:1017A000B401C8010E94D704882309F40BCFBFEF0E
:1017B0008B1A9B0AF601808187FDDFCF8AE698E0CD
:1017C0009D8F8C8FCE0101969F8F8E8FB9A2A8A27C
:1017D0001BA21AA2D701ED91FC910680F781E02DA2
:1017E000A70170E060E04B960995C3CE48E050E059
:1017F000BE016F5F7F4FC8010E94D70428E0A22E70
:10180000B12C8111DBCFDECE44E050E0BE016F5F32
:101810007F4FC8010E94D70494E0A92EB12CF1CFCC
:10182000F80186819781009709F005CF8BE392E05C
:1018300002CF2F923F924F925F926F927F928F9240
:101840009F92AF92BF92CF92DF92EF92FF920F934F
:101850001F93CF93DF93CDB7DEB7C155D1090FB634
:10186000F894DEBF0FBECDBF7C01690127961FAE85
:101870001EAE27971FAA18AE19AE1AAE1BAE1CAE2D
:101880001DAE1EAECE014C960E94D608882309F4E8
:1018900064C2CD2809F061C2CE014C960E941309A2
:1018A00081115BC2D70116962D913C91211531050E
:1018B00011F424E232E0F70137832683CF5ADF4F59
:1018C0000FB6F894DEBF0FBECDBFDF91CF911F9151
:1018D0000F91FF90EF90DF90CF90BF90AF909F90CF
:1018E0008F907F906F905F904F903F902F900895D2
:1018F0009E01295B3F4FAE01415C5F4FBE016D5BB6
:101900007F4FC7010E948F04811107C028968FADB9
:10191000289781110EC180E0D1CF23968CAC9DAC6D
:10192000AEACBFAC239781149104A104B10461F45F
:10193000D70116968D919C91009711F480E792E063
:10194000F70197838683E7CF88A599A5B0E0A0E04B
:1019500088169906AA06BB0609F49BC0EC8DFD8D7E
:101960004485558570E060E0481559056A057B059A
:1019700008F43CC0C8A0D9A088169906AA06BB06E0
:1019800020F48085918599A388A3CE014C960E946E
:10199000D005AC8DBD8D8AA19BA1880F991F880FA2
:1019A000991FED91FC91E80FF91F85919591A591F3
:1019B000B49102E0B695A795979587950A95D1F7CA
:1019C00088259925AA25BB258F739927AA27BB2788
:1019D000892B8A2B8B2B09F449C088A199A1C816A1
:1019E000D90699F6CE014C960E944A06411451043C
:1019F0006104710409F066C08EA58F708A3009F405
:101A000053C0C8A0D9A0CE014C960E94D005AC8D81
:101A1000BD8D8AA19BA1880F991F880F991FED91F9
:101A2000FC91E80FF91F85919591A591B491892FAB
:101A30009A2FAB2FBB278F709927AA27BB270A970E
:101A4000A105B10509F0C1C0CE014C960E944A061D
:101A500081112AC02C968EAD9FAD2C97892B09F051
:101A6000B7C144244A94542C32012CC0CE014C9668
:101A70000E944A0688A599A5B0E0A0E088169906BC
:101A8000AA06BB0609F0A9CF8EA58F708A3009F48B
:101A9000A4CF8EA5982F9F709A3009F0E9C0411409
:101AA00051046104710471F4E9A9FAA9208131811A
:101AB0002C963FAF2EAF2C97232B99F248A459A414
:101AC000712C612C23968CAC9DACAEACBFAC239733
:101AD00084149504A604B70408F470C1D7011496C1
:101AE0000D90BC91A02D6296BFAFAEAF62972596C8
:101AF000EEADFFAD25976096FFAFEEAF60972C96E9
:101B0000CEACDFAC2C97F7018481958162962EAD27
:101B10003FAD6297C114D10409F44CC128173907AD
:101B200009F45EC0D70114968D919C91892B09F020
:101B3000DFCE2E96EEADFFAD2E97319641F0279673
:101B40008EAD9FAD27978215930509F0B0C0EC8D3F
:101B5000FD8D828593850097B1F18134910510F058
:101B600080E490E09C0145E0369527954A95E1F7A1
:101B7000FE01F79650E040E02417350709F004C154
:101B8000AC014F715527452BF1F0220F331F220F67
:101B9000331FFE01E20FF31F8F7120E2281B8FEF2E
:101BA0009FEFDC0104C0B695A795979587952A9578
:101BB000D2F747A950AD61AD72AD481759076A0712
:101BC0007B0709F0EAC081E079CE88A199A1C81607
:101BD000D90609F018CFCE014C960E944A063ACF9A
:101BE000D601ED91FC910190F081E02D309789F0C4
:101BF00060960EAD1FAD6097A5019401B601C701B7
:101C00000995882309F487CED6011496CD90DC90EF
:101C10007ACFB601CE0101960E94E40881110DC071
:101C2000F70186819781009711F489E792E0D70147
:101C300017969C938E9316976ECE8D859E85B0E0F9
:101C4000A0E088169906AA06BB06F1F68B819C8156
:101C5000892BD1F221E0F6012683AE014F5F5F4F61
:101C600060966EAD7FAD6097C7010E941C0AC9CF18
:101C70008073803209F040C08BA99CA92A96AEAD32
:101C8000BFAD2A978A179B0761F588A199A12E9667
:101C9000EEADFFAD2E978E179F07E9F0319689F0D4
:101CA00027962EAD3FAD27972215330551F0D7016A
:101CB00016968D919C91009709F042CE8BE892E0A8
:101CC0003FCE27961FAE1EAE27972CA43DA42E967E
:101CD0009FAF8EAF2E9725E430E02C0F3D1F3CAB1D
:101CE0002BAB25966EAD7FAD2597AE01445E5F4F61
:101CF000C7010E941C0A69C08111F3CF8CA19DA16C
:101D00008034910570F7FC0155E0F695E7955A95FA
:101D1000E1F7EE0FFF1FEE0FFF1FA1E0B0E0AC0FE9
:101D2000BD1FEA0FFB1F8F71992741E050E060E073
:101D300070E004C0440F551F661F771F8A95D2F7C5
:101D400086A997A9A0ADB1AD842B952BA62BB72B57
:101D500086AB97ABA0AFB1AFC4CF312C212CEFEF46
:101D6000FFEF2E96FFAFEEAF2E972C961FAE1EAE56
:101D70002C97412C512C32019E01245D3F4F2A9615
:101D80003FAF2EAF2A97CECE81909190A190B19087
:101D90008B208A208920809451F0D70116968D914E
:101DA0009C91009709F0CCCD8CEA92E0C9CD4F5FB1
:101DB0005F4FE2CE2817390709F0B4CE25966EADF5
:101DC0007FAD2597C7010E9471058111ABCEA3CDD0
:101DD00023968CAC9DACAEACBFAC23977FCE4F921C
:101DE0005F927F928F929F92AF92BF92CF92DF923B
:101DF000EF92FF920F931F93CF93DF93CDB7DEB790
:101E0000C05FD1090FB6F894DEBF0FBECDBF8E0103
:101E10000F571F4F86E2D8011D928A95E9F7680196
:101E20005801F12CE12C2FB7F8948091F90490918E
:101E3000FA04A091FB04B091FC042FBF80932E05FF
:101E400090932F05A0933005B093310586E295E07D
:101E50000E949D0197FFC7C12FB7F8948091F904A4
:101E60009091FA04A091FB04B091FC042FBF409123
:101E70002E0550912F056091300570913105841B1E
:101E8000950BA60BB70B40912A0550912B0560913D
:101E90002C0570912D0584179507A607B707B0F29A
:101EA000E114F10409F43FC080912505811152C06D
:101EB00080E090E0DC0188248A94982C5401F6019B
:101EC00021916F01211102C04C015D010196A11DFC
:101ED000B11D8E159F0598F3FFEF8F169F06AF0675
:101EE000BF0609F16AEC72E0CE0101960E941D1B4B
:101EF000CE0101960E945C082FEF821A920A8E147E
:101F00009F0470F4E818F908B801680D791DA7015D
:101F10008FEF94E00E940D1BF092FE04E092FD040E
:101F200081E080932505C051DF4F0FB6F894DEBFE6
:101F30000FBECDBFDF91CF911F910F91FF90EF901A
:101F4000DF90CF90BF90AF909F908F907F905F90E9
:101F50004F90089550E040E0D6018D916D018111C0
:101F60001AC08091FD049091FE047C01E40EF51EE0
:101F7000B7E2EB16F10460F16BED72E0CE01019671
:101F80000E941D1BCE0101960E945C081092FE0467
:101F90001092FD04C8CF4F5F5F4F4E155F05E0F212
:101FA0008091FD049091FE046C01CE0CDF1C6AEF61
:101FB00072E0F7E2CF16D10408F7A701B80181500B
:101FC0009B4F0E940D1BD092FE04C092FD04ABCF2C
:101FD000B80181509B4F0E940D1B6E01E7EACE0EA7
:101FE000D11CA7016FEF74E0C6010E940D1B109277
:101FF000FE041092FD04E114F10409F494CF56019B
:10200000AE0CBF1C90E080E0F801D601A8014A5D4B
:102010005F4F9D012F5F3F4F9C90911038C08460AF
:102020009F938F938AE793E09F938F938E010F5F27
:102030001F4F1F930F930E94241BC8010E945C082E
:102040000F900F900F900F900F900F90560189E90D
:10205000882E83E0982EC5018C199D098E159F0549
:1020600008F0BAC0F50181915F011F928F939F9292
:102070008F921F930F930E94241BC8010E944F0848
:102080000F900F900F900F900F900F90E4CF9A94B5
:10209000B501621B730B9616170619F010F08860D5
:1020A000962EBA016E1B7F0B9616170619F010F0CC
:1020B0008260962EBF012901892C811013C0692DE1
:1020C00070E0D901A60FB71FE60FF71FAA15BB05D1
:1020D000B8F42EEF921609F49CCFE417F50768F0D8
:1020E00082609ECFD2017D902D01711001C084606D
:1020F000DB017D92BD018A94E0CF1082319689CFB9
:10210000009709F08DCF81E0E816F10409F459C079
:10211000AE0143535F4F8CE1DA011D928A95E9F7D6
:102120008AE698E0C751DF4F99838883C95ED04023
:10213000C551DF4F19830883CB5ED040B1E0EB1A65
:10214000F108C351DF4FF982E882CD5ED040C15122
:10215000DF4F19821882CF5ED04030E020E060E887
:1021600071E0CE0187519F4F0E94190C8111DBCE87
:10217000C151DF4F88819981CF5ED040009711F423
:1021800083EC92E09F938F938AE193E09F938F93E8
:102190008E010F5F1F4F1F930F930E94241BC801D6
:1021A0000E945C0867E373E0C8010E941D1BC80120
:1021B0000E945C080F900F900F900F900F900F905F
:1021C000B2CE67E573E0CE0101960E941D1BCE01E1
:1021D00001960E945C08A7CE63E172E0C8010E94EC
:1021E0001D1BC801F6CFD5018D935D01BFEFEB1A22
:1021F000FB0AE4E2EE16F10409F015CE55CE0C947C
:10220000EF0E0E94CB0181110C94FF1008954F92A4
:102210005F927F928F929F92AF92BF92CF92DF9206
:10222000EF92FF920F931F93CF93DF93CDB7DEB75B
:1022300028970FB6F894DEBF0FBECDBFDC01FA01C0
:1022400092899F709C3008F03CC32A014D01E92F10
:10225000F0E0E35DFE4E0C94511A39117B117B11B5
:102260007B11CD12EE1217137113C913C913611428
:1022700024146115710569F06F3F710551F0D401A7
:1022800016968D919C91009709F083C18FE993E098
:1022900080C1D20155960D911C9150E040E0BE01E5
:1022A0006F5F7F4FC4010E949803782E882361F0EE
:1022B00081E049815A816B817C81452B462B472BDC
:1022C00009F480E0F8018083872D28960FB6F894F2
:1022D000DEBF0FBECDBFDF91CF911F910F91FF9059
:1022E000EF90DF90CF90BF90AF909F908F907F90B6
:1022F0005F904F9008956115710521F06F3F710552
:1023000009F0BDCFBE016F5F7F4F923009F071C001
:10231000C4010E941E03782E8823B1F2D2011E96BA
:102320008D919C911F978830910539F5A980BA80CD
:10233000CB80DC80ED80FE800F8118855596ED9175
:10234000FC91A082B182C282D382E482F5820683AC
:10235000178329813A814B815C816D817E818F81D8
:1023600098850E94F81A09F4AFCFF401868197810D
:102370000097C9F581EC93E036C084309105A1F453
:1023800039812A819B818C815596ED91FC91A32EF8
:10239000B22EC92ED82E3083218392838383E12CE1
:1023A000F12C00E010E0D5CF8230910561F49981E5
:1023B0008A815596ED91FC91A92EB82E9083818348
:1023C000C12CD12CECCF019739F4A9805596ED9111
:1023D000FC91A082B12CF4CFF40186819781009703
:1023E00011F48FEA93E0D40117969C938E9316977D
:1023F000DCC1933009F053C0C4010E941E03782E43
:10240000882309F461CFF9813A814B815C816D8128
:102410007E812F2F8F81988501E00E94D11A59016A
:102420006A017B01E82F192F2F2F217030E040E047
:1024300050E060E070E080E090E0A0E07E2E0E943E
:10244000011B41F0A094B094C094D094E094F09417
:1024500070941095D2011E968D919C911F97883093
:10246000910509F03FC055960D90BC91A02DAC92FE
:102470001196BC9211971296CC9212971396DC92F9
:1024800013971496EC9214971596FC92159716963E
:102490007C92169717961C937724739415CFC401DA
:1024A0000E941E03782E882309F40ECF09811A8119
:1024B0002B813C814D815E816F817885F20186851B
:1024C000978558016901089721F47A01762E172F14
:1024D000C1CF330F000B102F9801E02EF02E702E7D
:1024E000102FB8CF8430910539F5A501B601F2015E
:1024F000A589B6894D935D936D937C931397950150
:10250000FC2DBD2D770F440B542FBA01042FA42F9F
:10251000842F942F4F2F5B2F602F7A2F072D0E942F
:10252000F81A09F4B9CFD40116968D919C910097B1
:1025300081F581EC93E02DC08230910589F4F201A0
:10254000A589B689AC921196BC922A2D3B2DFB2D04
:10255000FF0FFF0BBF2F0F2FAF2F8F2F9F2FDACF24
:10256000019779F4F201A589B689AC922A2D3A2D0A
:10257000330F330BF32FB32F032FA32F832F932F5F
:10258000C9CFD40116968D919C91009711F48FEAD2
:1025900093E0F4019783868308C16530710521F0CB
:1025A0006F3F710509F06BCED20155960D911C91CC
:1025B00044E050E0BE016F5F7F4FC4010E94D7042A
:1025C000782E882309F480CE89819A81AB81BC81E1
:1025D000F80180839183A283B38376CE6130710545
:1025E00021F06F3F710509F04ACED20155960D9149
:1025F0001C9148E050E0BE016F5F7F4FC4010E9414
:10260000D704782E882309F45FCE79816A815B81B3
:102610004C813D812E819F818885F8017083618383
:102620005283438334832583968387834DCE6230E0
:10263000710509F024CE50E040E0BE016F5F7F4F8E
:10264000CD010E949803782E882309F43DCE49815C
:102650005A816B817C8141155105F1E06F0771054D
:1026600050F0D40116968D919C91009709F091CF6E
:1026700083ED93E08ECF9A012E5F3F4FC901B0E00A
:10268000A0E084179507A607B70750F4D401169663
:102690008D919C91009709F07CCF81EF91E079CFEB
:1026A000D20152968C915297807C803849F4F40183
:1026B00086819781009709F096CE8EE492E093CEC2
:1026C000F201868597858217930758F25596ED910A
:1026D000FC9141935193BF01C4010E94D704782E0D
:1026E000F3CD6230710549F0F4018681978100973E
:1026F00009F079CE8FE993E076CEFA010589168943
:1027000050E040E0BE016F5F7F4FCD010E94980313
:10271000782E882309F4D8CD89819A81AB81BC8138
:102720008F3FFFEF9F07AF07BF0709F4AFCFAC01A3
:102730004F5F5F4F6A01F12CE12CC816D906EA06FB
:10274000FB0608F4A3CFF2012289207C203851F443
:10275000D40116968D919C91009709F01ACF8EE4C2
:1027600092E017CF268537852417350750F4D4011A
:1027700016968D919C91009709F00BCF82EE93E015
:1027800008CF800F911FDC011C9249815A81B8014A
:10279000A3CF6230710509F0A7CFBE016F5F7F4FF5
:1027A000CD010E943D04811102C0712C8DCDF2013A
:1027B000818D928D892B51F4D40116968D919C9127
:1027C000009709F0E6CE82EF93E0E3CE82898F7026
:1027D0008930C1F0F2018289982F907C20E030E0AE
:1027E00031F4807321E030E0803209F420E0F2011E
:1027F00045895689618D728DCE0101960E94190C12
:10280000782E19C04789508D4115510519F3FA01E9
:1028100034970190F081E02D3097E1F24250510958
:10282000B201CE0101960995782E882321F08D8181
:102830009E81892B79F6BE016F5F7F4FC4010E9494
:102840004F05811141CDB1CF6230710509F017CD2F
:1028500050E040E0BE016F5F7F4FCD010E949803C2
:10286000782E882309F430CD89819A81AB81BC818F
:102870000097F1E0AF07B10508F0F3CEF20146850D
:1028800057850097A105B10539F470E060E08589AE
:1028900096890E94161B18CD8A0130E020E080172F
:1028A0009107A207B30751F0D40116968D919C9120
:1028B000009709F06ECE8BE094E06BCE6589768947
:1028C0000BCF16968D919C911797009709F08CCDA0
:1028D0008BE392E089CD1F920F920FB60F921124D5
:1028E0002F933F938F939F93AF93BF938091F9045E
:1028F0009091FA04A091FB04B091FC043091F4048F
:1029000023E0230F2D3758F50196A11DB11D20930B
:10291000F4048093F9049093FA04A093FB04B09319
:10292000FC048091F5049091F604A091F704B09115
:10293000F8040196A11DB11D8093F5049093F6044F
:10294000A093F704B093F804BF91AF919F918F913A
:102950003F912F910F900FBE0F901F90189526E872
:10296000230F0296A11DB11DD2CF1F920F920FB659
:102970000F9211242F933F934F935F936F937F9305
:102980008F939F93AF93BF93EF93FF9386E295E06E
:102990000E94D501FF91EF91BF91AF919F918F91CF
:1029A0007F916F915F914F913F912F910F900FBE4B
:1029B0000F901F9018951F920F920FB60F9211242F
:1029C0002F938F939F93EF93FF93E0913605F091B0
:1029D00037058081E0913C05F0913D0582FD1BC0EB
:1029E000908180913F058F5F8F7320914005821702
:1029F00041F0E0913F05F0E0EA5DFA4F958F80935A
:102A00003F05FF91EF919F918F912F910F900FBEF6
:102A10000F901F9018958081F4CF1F920F920FB6E0
:102A20000F9211242F933F934F935F936F937F9354
:102A30008F939F93AF93BF93EF93FF938091B900D0
:102A4000887F803609F44AC0F0F5883209F4A7C0BF
:102A500018F5803109F49BC0B8F4882309F4F9C053
:102A6000883009F494C0FF91EF91BF91AF919F918D
:102A70008F917F916F915F914F913F912F910F9027
:102A80000FBE0F901F901895883109F488C08032CE
:102A900051F78093BB0414C0803409F49DC040F406
:102AA0008033B9F38833F9F68093BB0485ECB0C06A
:102AB000803509F485C0883509F496C0883499F6C4
:102AC0000E947F08D0CF883909F48CC038F5883748
:102AD00029F050F4883611F0803729F683E080938E
:102AE000BC041092BA0457C0883809F47BC08039FE
:102AF00019F0803809F0B7CF8091BA04803208F01D
:102B000071C0E091BA0481E08E0F8093BA04809185
:102B1000BB00F0E0E656FB4F80833DC0803B39F0C0
:102B2000E0F4803A09F479C0883A09F09CCF84E057
:102B30008093BC041092990410929804E091E404EC
:102B4000F091E50409958091980481110FC081E00E
:102B5000809398041092780409C0803C09F4A6CFB1
:102B6000883C09F4A3CF883B09F07DCFE09199041C
:102B700081E08E0F80939904F0E0E858FB4F80814C
:102B80008093BB00909199048091980429C0809112
:102B9000E1048093BB0085EC8093BC0064CF9091EE
:102BA000E0048091DF04981758F5E091E00481E09B
:102BB0008E0F8093E004F0E0E154FB4F8081E9CF79
:102BC000E091E00481E08E0F8093E0048091BB00EF
:102BD000F0E0E154FB4F80839091E0048091DF04AA
:102BE0009817C8F285E8D8CFE091E00481E08E0F15
:102BF0008093E0048091BB00F0E0E154FB4F8083C0
:102C00008091BE0481115CCF81E08093BD0484EA91
:102C10008093BC001092BC0426CF85EC8093BC004E
:102C20001092BC048091BA04803230F4E091BA046E
:102C3000F0E0E656FB4F10826091BA0470E0E0913C
:102C4000E204F091E3048AE994E009951092BA0451
:102C50000ACF1092BB0434CF1F920F920FB60F927F
:102C600011241092F3040F900FBE0F901F9018952F
:102C7000109229051092280588EE93E0A0E0B0E0BC
:102C800080932A0590932B05A0932C05B0932D05D6
:102C900022E931E0309327052093260525EC30E02A
:102CA000309333052093320524EC30E03093350522
:102CB0002093340520EC30E030933705209336051F
:102CC00021EC30E0309339052093380522EC30E0D8
:102CD00030933B0520933A0526EC30E030933D05D8
:102CE00020933C0510923F0510924005109241053B
:102CF000109242051092C6051092C5058093C70533
:102D00009093C805A093C905B093CA0584EA91E0E1
:102D10009093C4058093C305EFECF5E02DE09CE0B3
:102D20008FEF10821182128213821482258397837F
:102D30008087818713861486158616861786108AE3
:102D4000118A128A138A148A158A168A178A108E93
:102D5000118E128E138E148E158E168E178E10A253
:102D600011A212A213A214A2B59636E0E336F3071D
:102D7000C1F60895CF93DF93CDB7DEB7CD58D10913
:102D80000FB6F894DEBF0FBECDBF789484B58260D5
:102D900084BD84B5816084BD85B5826085BD85B5FF
:102DA000816085BD80916E00816080936E0010927D
:102DB00081008091810082608093810080918100F8
:102DC0008160809381008091800081608093800089
:102DD0008091B10084608093B1008091B0008160E7
:102DE0008093B00080917A00846080937A00809113
:102DF0007A00826080937A0080917A00816080936B
:102E00007A0080917A00806880937A001092C100E5
:102E10008EE00E94C40081E10E94C40061E081E173
:102E20000E940C0161E08EE00E940C011092E90406
:102E30001092E8041092E7041092E6040E948B02BC
:102E40008FE591E09093E5048093E40480E691E0BF
:102E50009093E3048093E204E0913605F091370506
:102E600082E08083E0913205F09133051082E09199
:102E70003405F091350580E1808310923E05E091A4
:102E80003A05F0913B0586E08083E0913805F091AA
:102E90003905808180618083E0913805F0913905A2
:102EA000808188608083E0913805F09139058081C8
:102EB00080688083E0913805F091390580818F7DAD
:102EC000808384E190E0A0E0B0E080932A059093B5
:102ED0002B05A0932C05B0932D056DE274E0CE0177
:102EE00001960E941D1BCE0101960E945C081FB72F
:102EF000F8948091EA04811124C0E4E1F1E0849126
:102F0000E8E2F1E09491E82FF0E0EE0FFF1FE050CF
:102F1000FF4FA591B491EC91E92321F461E08AE09F
:102F20000E940C018AE00E94C4008CB580618CBDB7
:102F30008CB580648CBD8DE00E94C4008BE00E9443
:102F4000C4008091EA048F5F8093EA041FBF8CB5B0
:102F50008C608CBD8CB58C7F81608CBD8DB58E7F77
:102F60008DBD0FEC15E080E791E0C457DF4F9983EA
:102F70008883CC58D040ACE6B1E0CA57DF4FB98364
:102F8000A883C658D040E8E6F1E0C857DF4FF98380
:102F9000E883C858D0408CE591E0C657DF4F99834D
:102FA0008883CA58D040A4E6B1E0CC57DF4FB9833C
:102FB000A883C458D0406DEC262E6CEC362E432CE2
:102FC0006DE3562E812C912C76E9A72E73E4B72E53
:102FD000F8012486358646865786108A118A128A19
:102FE000138AC457DF4FE881F981CC58D0408191D2
:102FF0009191A191B191C457DF4FF983E883CC58E7
:10300000D040F801848B958BA68BB78BCA57DF4FC6
:10301000A881B981C658D0408D91CA57DF4FB98376
:10302000A883C658D040808FC857DF4FE881F98108
:10303000C858D0408191C857DF4FF983E883C858FA
:10304000D040E0EC803621F0813609F067C0E2EC38
:10305000D8011B96EC93B8E4B093B800F801818EC8
:10306000928EA38EB48E158E168E178E10A23801F6
:10307000B5E06B0E711CCC57DF4FE881F981C45865
:10308000D0408191CC57DF4FF983E883C458D040BA
:10309000D80116968C93169718968C918F3F39F01D
:1030A0000E94C40060E0F80180850E940C01D801F4
:1030B00016968C910E94C40061E0F80186810E94FE
:1030C0000C01F0E2CD57DF4FF883C358D040C30165
:1030D0000E94E707D80119968C91199784FD2AC0A0
:1030E000CD57DF4FB881C358D040B150CD57DF4FD7
:1030F000B883C358D040BB2309F46BC00E943A0187
:103100006B017C010E943A016C197D098E099F09AF
:10311000683E734081059105D0F6F4CFE6EC833626
:1031200009F496CFE8EC843609F492CFD8011B96C7
:103130008C9391CF18968C9118978F3F09F449C0C2
:1031400060E016968C910E940C0160E0F801858188
:103150000E940C0161E0D80118968C910E940C012C
:103160008FE090E00197F1F761E0F80186810E941D
:103170000C018FE090E00197F1F750E1F52E60E04F
:10318000D80118968C910E940C0161E0F8018581AC
:103190000E940C0160E0D80115968C910E940C01F0
:1031A000FA94F110ECCF60E0F80180850E940C01E8
:1031B00060E0D80116968C910E940C0161E0F80144
:1031C00086810E940C0161E0D80115968C910E94C5
:1031D0000C01C657DF4FE881F981CA58D040819170
:1031E0009191C657DF4FF983E883CA58D04021E058
:1031F000009709F420E0D80114962C93892B09F448
:103200000AC1C3010E94E707092E000CAA0BBB0BE1
:10321000F80180839183A283B3830B5D1F4F83E604
:1032200096E08017910709F0D3CEF89410928000B1
:103230001092810010928500109284008FE19EE42C
:1032400090938900809388008091810088608093AA
:1032500081008091810082608093810080916F0065
:10326000826080936F00789488E19EE00FB6F894B6
:10327000A895809360000FBE90936000412C512C64
:1032800036E9632E33E4732E40EF842E40E0942E13
:1032900029E3222E24E0322E91E09093F304A895A6
:1032A0002091EB043091EC044091ED045091EE0438
:1032B0006091EF047091F0048091F1049091F20418
:1032C000A1E00E94EC1A2093EB043093EC044093AD
:1032D000ED045093EE046093EF047093F004809338
:1032E000F1049093F2049F938F937F936F935F9376
:1032F0004F933F932F933F922F92A1E0B0E0AC0FFA
:10330000BD1FBF93AF930E94241BCE0101960E9464
:103310005C088DEC9CECACECBDE3809325069093AF
:103320002606A0932706B0932806409232065092B4
:103330003306609234067092350680E090E0A0EA91
:10334000B1E480933A0690933B06A0933C06B09379
:103350003D060E94EF0E2091EB043091EC04409169
:10336000ED045091EE046091EF047091F0049AE046
:10337000A92EB12CC12CD12CE12CF12C00E010E0B5
:103380008091F1049091F2040E94571A0FB6F894BC
:10339000DEBF0FBECDBFA0E00E94011B21F5F401EE
:1033A0008491ECE2F1E01491E8E1F1E0049170E045
:1033B00060E0002399F081110E94E300E02FF0E02B
:1033C000EE0FFF1FE852FF4FA591B4918C91182387
:1033D00091E080E009F490E0692F782FF1E06F2709
:1033E0008EE00E940C018091F3048823D9F0CF571E
:1033F000DF4F19821882C158D040CF57DF4F8881E4
:103400009981C158D0400196CF57DF4F9983888367
:10341000C158D040E8CFC3010E94E707919581953C
:103420009109F2CE0E94CB01882309F435CF0E9486
:10343000FF102ECF2F923F924F925F926F927F920A
:103440008F929F92AF92BF92CF92DF92EF92FF92B4
:103450000F931F93CF93DF93CDB7DEB7CA1BDB0B60
:103460000FB6F894DEBF0FBECDBF09942A88398805
:1034700048885F846E847D848C849B84AA84B9840C
:10348000C884DF80EE80FD800C811B81AA81B98118
:10349000CE0FD11D0FB6F894DEBF0FBECDBFED012C
:1034A0000895EE0FFF1F0590F491E02D09946894A4
:1034B00001C0E8948F929F92CF93DF930E94651A88
:1034C000DF91CF919F908F90089588249924F401E3
:1034D000E401B0E49F93AA279A158B049C04ED05A0
:1034E000FE05CF05D007A10798F4AD2FDC2FCF2F15
:1034F000FE2FE92D982C892E982F872F762F652F58
:10350000542F432F322F2227B85031F7BF9127C0B5
:103510001B2EBF91BB27220F331F441F551F661F51
:10352000771F881F991F881C991CEE1FFF1FCC1F37
:10353000DD1FAA1FBB1F8A149B04EC05FD05CE05E9
:10354000DF05A007B10748F08A189B08EC09FD09C0
:10355000CE09DF09A00BB10B21601A94E1F62EF41D
:103560009401AF01BE01CD01000C0895002E08307A
:1035700090F0982F872F762F652F542F432F322FBF
:1035800022270850F4CF220F331F441F551F661FF8
:10359000771F881F991F0A95B2F7002D089597FD90
:1035A0001094002E083098F00850232F342F452F08
:1035B000562F672F782F892F912DF4CF159497953B
:1035C00087957795679557954795379527950A95E8
:1035D000AAF71124002D08950024A7FD00942A0FB6
:1035E000301D401D501D601D701D801D901D0895D3
:1035F0002A153B054C055D056E057F058007910783
:1036000008950024A7FD00942A17300540055005B1
:1036100060057005800590050895FB01DC0102C07E
:1036200001900D9241505040D8F70895DC0101C03F
:103630006D9341505040E0F70895FB01DC0101908B
:103640000D920020E1F70895AEE0B0E0EAE2FBE180
:103650000C94281A0D891E8986E08C831A830983AD
:103660008FEF9FE79E838D83AE01475E5F4F6F892B
:10367000788DCE0101960E94471B2F813885020F5D
:10368000131FF80110822E96E4E00C94441AABE06C
:10369000B0E0EDE4FBE10C941A1A7C013B018A01D5
:1036A000FC0117821682838181FFC8C1CE01019679
:1036B0005C01F7019381F30193FD859193FF819163
:1036C0003F01882309F453C1853239F493FD859174
:1036D00093FF81913F01853229F4B70190E00E9468
:1036E000371DE7CF912C212C312CFFE1F31538F059
:1036F0008B3211F190F4803209F1833229F137FCD9
:103700003CC020ED280F2A3050F536FE20C08AE05C
:10371000989E200D1124922E06C08D3291F0803398
:1037200071F7689430F8F30193FD859193FF8191CF
:103730003F018111DACF21C0689431F8689432F8E2
:10374000F2CF689433F8EFCF689434F8ECCFEAE026
:103750002E9E200D1124222E689435F8E4CF8E324F
:1037600029F436FC04C1689436F8DDCF8C3619F4A0
:10377000689437F8D8CF8836B1F2982F9F7D95544A
:103780009330E0F08336A1F18337C1F1833509F03E
:1037900063C02801F2E04F0E511CF801C080D180B7
:1037A000692D70E036FC02C06FEF7FEFC6010E940A
:1037B000211D4C01689437F882010AC00C5F1F4F2D
:1037C000FFE3F98388248394912C6501E89437F80A
:1037D00033FE2DC0522C8114910471F5552009F44B
:1037E00068CFB70180E290E00E94371D5A94F6CF6F
:1037F000F801808189830E5F1F4FE4CF2801F2E03A
:103800004F0E511CF801C080D180692D70E036FC4C
:1038100002C06FEF7FEFC6010E942C1D4C01820198
:10382000D5CFB70180E290E00E94371D2A9428147A
:10383000190409F0B0F7CECFF60137FC859137FEB9
:1038400081916F01B70190E00E94371D51105A9489
:10385000F1E08F1A9108BFCF843619F0893609F04C
:1038600077C0F80137FE6BC06081718182819381DE
:103870000C5F1F4FF32DFF763F2E97FF09C09095E9
:103880008095709561957F4F8F4F9F4F689437F863
:103890002AE030E0A5010E94671DC82ECA188C2CB2
:1038A000432C36FE0CC0E89440F8C91440F434FEB2
:1038B00005C032FC03C0F32DFE7E4F2E892C44FE42
:1038C00095C0FE01EC0DF11D8081803309F087C0A9
:1038D000242D297E422E842D8870582E43FC95C0BD
:1038E00040FE8FC09C2C821418F42C0C922C98183B
:1038F00044FE91C0B70180E390E00E94371D42FE74
:1039000009C088E790E041FE02C088E590E0B70179
:103910000E94371DC91408F48AC0CA94D12C9FEFA5
:10392000C91AD90ACA0CDB1CF60182916F01B701D2
:1039300090E00E94371DAC14BD04B1F74FCF6081F9
:103940007181072E000C880B990B0E5F1F4F92CFD1
:10395000D32CE894D4F82AE030E0853739F1232DD0
:10396000297FD22E8F3601F148F48835A9F0F7016E
:10397000868197812B96E2E10C94361A803749F0C4
:103980008837A9F7D4FE02C06894D2F820E130E06D
:103990000DC06894D4F8F6CF34FE03C0822F866041
:1039A000D82E20E132E002C028E030E0F801D7FE56
:1039B0000FC060817181828193810C5F1F4FA501CF
:1039C0000E94671DC82ECA183D2CE89437F867CFAF
:1039D0006081718190E080E00E5F1F4FF0CF42FC6C
:1039E00002C0839478CF8394839475CF842D867896
:1039F00009F471CFF6CFB70180E290E00E94371D45
:103A000083948214C0F3512C73CF522C5818821413
:103A100008F46ECFF8CF842D867809F47BCF8BE243
:103A200041FE80E247FC8DE2B70190E071CFB70123
:103A300080E390E00E94371D9A946CCF8FEF9FEF48
:103A400099CFFC010590615070400110D8F7809526
:103A500090958E0F9F1F0895FC016150704001905A
:103A60000110D8F7809590958E0F9F1F08950F93A2
:103A70001F93CF93DF93182F092FEB018B8181FDCB
:103A800009C01FEF0FEF812F902FDF91CF911F9172
:103A90000F91089582FF14C02E813F818C819D81FA
:103AA000281739073CF4E881F981CF010196998301
:103AB000888310838E819F8101969F838E83E3CFBD
:103AC000E885F985812F0995892BA1F3DACFFA01D1
:103AD000AA27283051F1203181F1E8946F936E7F4D
:103AE0006E5F7F4F8F4F9F4FAF4FB1E03ED0B4E03E
:103AF0003CD0670F781F891F9A1FA11D680F791F7F
:103B00008A1F911DA11D6A0F711D811D911DA11D8F
:103B100020D009F468943F912AE0269F112430199F
:103B2000305D3193DEF6CF010895462F4770405D3A
:103B30004193B3E00FD0C9F7F6CF462F4F70405DE9
:103B40004A3318F0495D31FD4052419302D0A9F744
:103B5000EACFB4E0A6959795879577956795BA953E
:103B6000C9F700976105710508959B01AC010A2E04
:103B700006945795479537952795BA95C9F7620FDB
:0E3B8000731F841F951FA01D0895F894FFCF9A
:103B8E0000000000680000010000000003000000BB
:103B9E000300780002010000000003000000030093
:103BAE000000120104010000000088002001000046
:103BBE0000000400000004009C0022010000000030
:103BCE00020000000200B000280100000000020008
:103BDE0000000200460138012A010000000000002A
:103BEE0001000000070A090863606461010101FF1A
:103BFE00BC000000A1000000D6020000640100001D
:103C0E00BC0054010000000003000000030000008F
:103C1E000000F70161018E014402BF019D01B10157
:103C2E0000000000DE02D302EF02A902CC02B902AC
:103C3E00AA02656E642D6F662D73747265616D00D8
:103C4E00696F206572726F7200766172696E742090
:103C5E006F766572666C6F7700706172656E742038
:103C6E0073747265616D20746F6F2073686F7274F8
:103C7E000073697A6520746F6F206C6172676500DE
:103C8E00696E76616C696420776972655F747970AC
:103C9E0065000D0A006172726179206F7665726639
:103CAE006C6F77006661696C656420746F20736554
:103CBE00742064656661756C747300696E76616CF0
:103CCE006964206669656C642074797065006E6F36
:103CDE00206D616C6C6F6320737570706F72740001
:103CEE0063616C6C6261636B206661696C65640014
:103CFE007A65726F2074616700696E76616C6964B3
:103D0E0020657874656E73696F6E0077726F6E677B
:103D1E002073697A6520666F722066697865642003
:103D2E00636F756E74206669656C64006D6973737C
:103D3E00696E672072657175697265642066696562
:103D4E006C6400286E6F6E652900466F756E642078
:103D5E006669727374207A65726F00546F6F206D8E
:103D6E007563682064617461206265666F72652098
:103D7E007A65726F206279746500546F6F206D756D
:103D8E006368206461746120776974686F7574204C
:103D9E007A65726F2062797465004661696C65643C
:103DAE0020746F206465636F6465206D6573736145
:103DBE0067653A2025730050726F746F636F6C20C5
:103DCE00627566666572206465636F64696E6720EE
:103DDE006661696C656400496E76616C6964207019
:103DEE0061636B6574206C656E67746820666F72B4
:103DFE00206465636F64696E67004661696C656413
:103E0E0020746F206465636F646520434F425320B6
:103E1E00646174613A2025640025303258200077A1
:103E2E00726F6E67207769726520747970650069AC
:103E3E006E76616C696420646174615F73697A6522
:103E4E0000696E746567657220746F6F206C6172A5
:103E5E006765006279746573206F766572666C6F44
:103E6E007700737472696E67206F766572666C6F19
:103E7E007700696E76616C6964206669656C642092
:103E8E0064657363726970746F7200696E636F72CA
:103E9E0072656374206669786564206C656E6774FC
:103EAE00682062797465732073697A650053746152
:103EBE007274696E672E2E2E006D61696E5F6C6F67
:103ECE006F705F636F756E746572203D20256C6C2C
:023EDE0075006D
:00000001FF
